{
  "contractName": "Petshop",
  "abi": [
    {
      "inputs": [
        {
          "internalType": "string",
          "name": "name",
          "type": "string"
        },
        {
          "internalType": "string",
          "name": "symbol",
          "type": "string"
        },
        {
          "internalType": "string",
          "name": "baseTokenURI",
          "type": "string"
        }
      ],
      "stateMutability": "nonpayable",
      "type": "constructor"
    },
    {
      "anonymous": false,
      "inputs": [
        {
          "indexed": true,
          "internalType": "address",
          "name": "owner",
          "type": "address"
        },
        {
          "indexed": true,
          "internalType": "address",
          "name": "approved",
          "type": "address"
        },
        {
          "indexed": true,
          "internalType": "uint256",
          "name": "tokenId",
          "type": "uint256"
        }
      ],
      "name": "Approval",
      "type": "event"
    },
    {
      "anonymous": false,
      "inputs": [
        {
          "indexed": true,
          "internalType": "address",
          "name": "owner",
          "type": "address"
        },
        {
          "indexed": true,
          "internalType": "address",
          "name": "operator",
          "type": "address"
        },
        {
          "indexed": false,
          "internalType": "bool",
          "name": "approved",
          "type": "bool"
        }
      ],
      "name": "ApprovalForAll",
      "type": "event"
    },
    {
      "anonymous": false,
      "inputs": [
        {
          "indexed": true,
          "internalType": "address",
          "name": "previousOwner",
          "type": "address"
        },
        {
          "indexed": true,
          "internalType": "address",
          "name": "newOwner",
          "type": "address"
        }
      ],
      "name": "OwnershipTransferred",
      "type": "event"
    },
    {
      "anonymous": false,
      "inputs": [
        {
          "indexed": true,
          "internalType": "address",
          "name": "owner",
          "type": "address"
        },
        {
          "indexed": false,
          "internalType": "uint256",
          "name": "tokenId",
          "type": "uint256"
        },
        {
          "indexed": false,
          "internalType": "uint256",
          "name": "price",
          "type": "uint256"
        },
        {
          "indexed": false,
          "internalType": "string",
          "name": "tokenURI",
          "type": "string"
        }
      ],
      "name": "PetCreated",
      "type": "event"
    },
    {
      "anonymous": false,
      "inputs": [
        {
          "indexed": false,
          "internalType": "uint256",
          "name": "tokenId",
          "type": "uint256"
        },
        {
          "indexed": false,
          "internalType": "uint256",
          "name": "prevPrice",
          "type": "uint256"
        },
        {
          "indexed": false,
          "internalType": "uint256",
          "name": "newPrice",
          "type": "uint256"
        }
      ],
      "name": "PetPriceChanged",
      "type": "event"
    },
    {
      "anonymous": false,
      "inputs": [
        {
          "indexed": true,
          "internalType": "address",
          "name": "prevOwner",
          "type": "address"
        },
        {
          "indexed": true,
          "internalType": "address",
          "name": "newOwner",
          "type": "address"
        },
        {
          "indexed": false,
          "internalType": "uint256",
          "name": "tokenId",
          "type": "uint256"
        },
        {
          "indexed": false,
          "internalType": "uint256",
          "name": "price",
          "type": "uint256"
        }
      ],
      "name": "PetPurchase",
      "type": "event"
    },
    {
      "anonymous": false,
      "inputs": [
        {
          "indexed": true,
          "internalType": "address",
          "name": "from",
          "type": "address"
        },
        {
          "indexed": true,
          "internalType": "address",
          "name": "to",
          "type": "address"
        },
        {
          "indexed": true,
          "internalType": "uint256",
          "name": "tokenId",
          "type": "uint256"
        }
      ],
      "name": "Transfer",
      "type": "event"
    },
    {
      "inputs": [
        {
          "internalType": "address",
          "name": "to",
          "type": "address"
        },
        {
          "internalType": "uint256",
          "name": "tokenId",
          "type": "uint256"
        }
      ],
      "name": "approve",
      "outputs": [],
      "stateMutability": "nonpayable",
      "type": "function"
    },
    {
      "inputs": [
        {
          "internalType": "address",
          "name": "owner",
          "type": "address"
        }
      ],
      "name": "balanceOf",
      "outputs": [
        {
          "internalType": "uint256",
          "name": "",
          "type": "uint256"
        }
      ],
      "stateMutability": "view",
      "type": "function"
    },
    {
      "inputs": [
        {
          "internalType": "uint256",
          "name": "tokenId",
          "type": "uint256"
        }
      ],
      "name": "getApproved",
      "outputs": [
        {
          "internalType": "address",
          "name": "",
          "type": "address"
        }
      ],
      "stateMutability": "view",
      "type": "function"
    },
    {
      "inputs": [
        {
          "internalType": "address",
          "name": "owner",
          "type": "address"
        },
        {
          "internalType": "address",
          "name": "operator",
          "type": "address"
        }
      ],
      "name": "isApprovedForAll",
      "outputs": [
        {
          "internalType": "bool",
          "name": "",
          "type": "bool"
        }
      ],
      "stateMutability": "view",
      "type": "function"
    },
    {
      "inputs": [],
      "name": "name",
      "outputs": [
        {
          "internalType": "string",
          "name": "",
          "type": "string"
        }
      ],
      "stateMutability": "view",
      "type": "function"
    },
    {
      "inputs": [],
      "name": "owner",
      "outputs": [
        {
          "internalType": "address",
          "name": "",
          "type": "address"
        }
      ],
      "stateMutability": "view",
      "type": "function"
    },
    {
      "inputs": [
        {
          "internalType": "uint256",
          "name": "tokenId",
          "type": "uint256"
        }
      ],
      "name": "ownerOf",
      "outputs": [
        {
          "internalType": "address",
          "name": "",
          "type": "address"
        }
      ],
      "stateMutability": "view",
      "type": "function"
    },
    {
      "inputs": [
        {
          "internalType": "uint256",
          "name": "",
          "type": "uint256"
        }
      ],
      "name": "petsOnSale",
      "outputs": [
        {
          "internalType": "bool",
          "name": "",
          "type": "bool"
        }
      ],
      "stateMutability": "view",
      "type": "function"
    },
    {
      "inputs": [],
      "name": "renounceOwnership",
      "outputs": [],
      "stateMutability": "nonpayable",
      "type": "function"
    },
    {
      "inputs": [
        {
          "internalType": "address",
          "name": "from",
          "type": "address"
        },
        {
          "internalType": "address",
          "name": "to",
          "type": "address"
        },
        {
          "internalType": "uint256",
          "name": "tokenId",
          "type": "uint256"
        }
      ],
      "name": "safeTransferFrom",
      "outputs": [],
      "stateMutability": "nonpayable",
      "type": "function"
    },
    {
      "inputs": [
        {
          "internalType": "address",
          "name": "from",
          "type": "address"
        },
        {
          "internalType": "address",
          "name": "to",
          "type": "address"
        },
        {
          "internalType": "uint256",
          "name": "tokenId",
          "type": "uint256"
        },
        {
          "internalType": "bytes",
          "name": "_data",
          "type": "bytes"
        }
      ],
      "name": "safeTransferFrom",
      "outputs": [],
      "stateMutability": "nonpayable",
      "type": "function"
    },
    {
      "inputs": [
        {
          "internalType": "address",
          "name": "operator",
          "type": "address"
        },
        {
          "internalType": "bool",
          "name": "approved",
          "type": "bool"
        }
      ],
      "name": "setApprovalForAll",
      "outputs": [],
      "stateMutability": "nonpayable",
      "type": "function"
    },
    {
      "inputs": [
        {
          "internalType": "bytes4",
          "name": "interfaceId",
          "type": "bytes4"
        }
      ],
      "name": "supportsInterface",
      "outputs": [
        {
          "internalType": "bool",
          "name": "",
          "type": "bool"
        }
      ],
      "stateMutability": "view",
      "type": "function"
    },
    {
      "inputs": [],
      "name": "symbol",
      "outputs": [
        {
          "internalType": "string",
          "name": "",
          "type": "string"
        }
      ],
      "stateMutability": "view",
      "type": "function"
    },
    {
      "inputs": [
        {
          "internalType": "uint256",
          "name": "",
          "type": "uint256"
        }
      ],
      "name": "tokenPrices",
      "outputs": [
        {
          "internalType": "uint256",
          "name": "",
          "type": "uint256"
        }
      ],
      "stateMutability": "view",
      "type": "function"
    },
    {
      "inputs": [
        {
          "internalType": "uint256",
          "name": "tokenId",
          "type": "uint256"
        }
      ],
      "name": "tokenURI",
      "outputs": [
        {
          "internalType": "string",
          "name": "",
          "type": "string"
        }
      ],
      "stateMutability": "view",
      "type": "function"
    },
    {
      "inputs": [
        {
          "internalType": "address",
          "name": "from",
          "type": "address"
        },
        {
          "internalType": "address",
          "name": "to",
          "type": "address"
        },
        {
          "internalType": "uint256",
          "name": "tokenId",
          "type": "uint256"
        }
      ],
      "name": "transferFrom",
      "outputs": [],
      "stateMutability": "nonpayable",
      "type": "function"
    },
    {
      "inputs": [
        {
          "internalType": "address",
          "name": "newOwner",
          "type": "address"
        }
      ],
      "name": "transferOwnership",
      "outputs": [],
      "stateMutability": "nonpayable",
      "type": "function"
    },
    {
      "stateMutability": "payable",
      "type": "receive"
    },
    {
      "inputs": [
        {
          "internalType": "address",
          "name": "to_",
          "type": "address"
        },
        {
          "internalType": "uint256",
          "name": "price_",
          "type": "uint256"
        },
        {
          "internalType": "string",
          "name": "tokenURI_",
          "type": "string"
        }
      ],
      "name": "createPet",
      "outputs": [
        {
          "internalType": "uint256",
          "name": "",
          "type": "uint256"
        }
      ],
      "stateMutability": "nonpayable",
      "type": "function"
    },
    {
      "inputs": [
        {
          "internalType": "uint256",
          "name": "tokenId_",
          "type": "uint256"
        }
      ],
      "name": "buyPet",
      "outputs": [
        {
          "internalType": "bool",
          "name": "",
          "type": "bool"
        }
      ],
      "stateMutability": "payable",
      "type": "function"
    },
    {
      "inputs": [
        {
          "internalType": "uint256",
          "name": "tokenId_",
          "type": "uint256"
        },
        {
          "internalType": "uint256",
          "name": "price_",
          "type": "uint256"
        }
      ],
      "name": "changePetPrice",
      "outputs": [],
      "stateMutability": "nonpayable",
      "type": "function"
    }
  ],
  "bytecode": "0x60806040523480156200001157600080fd5b5060405162003e7838038062003e78833981810160405281019062000037919062000296565b828260006200004b6200015660201b60201c565b9050806000806101000a81548173ffffffffffffffffffffffffffffffffffffffff021916908373ffffffffffffffffffffffffffffffffffffffff1602179055508073ffffffffffffffffffffffffffffffffffffffff16600073ffffffffffffffffffffffffffffffffffffffff167f8be0079c531659141344cd1fd0a4f28419497f9722a3daafe3b4186f6b6457e060405160405180910390a35081600190805190602001906200010192919062000174565b5080600290805190602001906200011a92919062000174565b50505080600990805190602001906200013592919062000174565b506200014d60086200015e60201b620016a11760201c565b505050620004a7565b600033905090565b6001816000016000828254019250508190555050565b8280546200018290620003cc565b90600052602060002090601f016020900481019282620001a65760008555620001f2565b82601f10620001c157805160ff1916838001178555620001f2565b82800160010185558215620001f2579182015b82811115620001f1578251825591602001919060010190620001d4565b5b50905062000201919062000205565b5090565b5b808211156200022057600081600090555060010162000206565b5090565b60006200023b620002358462000360565b62000337565b9050828152602081018484840111156200025457600080fd5b6200026184828562000396565b509392505050565b600082601f8301126200027b57600080fd5b81516200028d84826020860162000224565b91505092915050565b600080600060608486031215620002ac57600080fd5b600084015167ffffffffffffffff811115620002c757600080fd5b620002d58682870162000269565b935050602084015167ffffffffffffffff811115620002f357600080fd5b620003018682870162000269565b925050604084015167ffffffffffffffff8111156200031f57600080fd5b6200032d8682870162000269565b9150509250925092565b60006200034362000356565b905062000351828262000402565b919050565b6000604051905090565b600067ffffffffffffffff8211156200037e576200037d62000467565b5b620003898262000496565b9050602081019050919050565b60005b83811015620003b657808201518184015260208101905062000399565b83811115620003c6576000848401525b50505050565b60006002820490506001821680620003e557607f821691505b60208210811415620003fc57620003fb62000438565b5b50919050565b6200040d8262000496565b810181811067ffffffffffffffff821117156200042f576200042e62000467565b5b80604052505050565b7f4e487b7100000000000000000000000000000000000000000000000000000000600052602260045260246000fd5b7f4e487b7100000000000000000000000000000000000000000000000000000000600052604160045260246000fd5b6000601f19601f8301169050919050565b6139c180620004b76000396000f3fe60806040526004361061012e5760003560e01c806370a08231116100ab578063a22cb4651161006f578063a22cb46514610417578063b88d4fde14610440578063c87b56dd14610469578063e5afe3e6146104a6578063e985e9c5146104e3578063f2fde38b1461052057610138565b806370a082311461033d578063715018a61461037a5780638da5cb5b1461039157806395d89b41146103bc5780639edded11146103e757610138565b806342842e0e116100f257806342842e0e146102345780634ae844951461025d5780635e760e3d146102865780636352211e146102c35780636a6ca9961461030057610138565b806301ffc9a71461013d57806306fdde031461017a578063081812fc146101a5578063095ea7b3146101e257806323b872dd1461020b57610138565b3661013857600080fd5b600080fd5b34801561014957600080fd5b50610164600480360381019061015f919061272c565b610549565b6040516101719190612c1d565b60405180910390f35b34801561018657600080fd5b5061018f61062b565b60405161019c9190612c38565b60405180910390f35b3480156101b157600080fd5b506101cc60048036038101906101c7919061277e565b6106bd565b6040516101d99190612bb6565b60405180910390f35b3480156101ee57600080fd5b5061020960048036038101906102049190612689565b610742565b005b34801561021757600080fd5b50610232600480360381019061022d9190612583565b61085a565b005b34801561024057600080fd5b5061025b60048036038101906102569190612583565b6108ba565b005b34801561026957600080fd5b50610284600480360381019061027f91906127a7565b6108da565b005b34801561029257600080fd5b506102ad60048036038101906102a891906126c5565b6109ee565b6040516102ba9190612efa565b60405180910390f35b3480156102cf57600080fd5b506102ea60048036038101906102e5919061277e565b610b39565b6040516102f79190612bb6565b60405180910390f35b34801561030c57600080fd5b506103276004803603810190610322919061277e565b610beb565b6040516103349190612c1d565b60405180910390f35b34801561034957600080fd5b50610364600480360381019061035f919061251e565b610c0b565b6040516103719190612efa565b60405180910390f35b34801561038657600080fd5b5061038f610cc3565b005b34801561039d57600080fd5b506103a6610dfd565b6040516103b39190612bb6565b60405180910390f35b3480156103c857600080fd5b506103d1610e26565b6040516103de9190612c38565b60405180910390f35b61040160048036038101906103fc919061277e565b610eb8565b60405161040e9190612c1d565b60405180910390f35b34801561042357600080fd5b5061043e6004803603810190610439919061264d565b611117565b005b34801561044c57600080fd5b50610467600480360381019061046291906125d2565b611298565b005b34801561047557600080fd5b50610490600480360381019061048b919061277e565b6112fa565b60405161049d9190612c38565b60405180910390f35b3480156104b257600080fd5b506104cd60048036038101906104c8919061277e565b61144c565b6040516104da9190612efa565b60405180910390f35b3480156104ef57600080fd5b5061050a60048036038101906105059190612547565b611464565b6040516105179190612c1d565b60405180910390f35b34801561052c57600080fd5b506105476004803603810190610542919061251e565b6114f8565b005b60007f80ac58cd000000000000000000000000000000000000000000000000000000007bffffffffffffffffffffffffffffffffffffffffffffffffffffffff1916827bffffffffffffffffffffffffffffffffffffffffffffffffffffffff1916148061061457507f5b5e139f000000000000000000000000000000000000000000000000000000007bffffffffffffffffffffffffffffffffffffffffffffffffffffffff1916827bffffffffffffffffffffffffffffffffffffffffffffffffffffffff1916145b806106245750610623826116b7565b5b9050919050565b60606001805461063a906131ee565b80601f0160208091040260200160405190810160405280929190818152602001828054610666906131ee565b80156106b35780601f10610688576101008083540402835291602001916106b3565b820191906000526020600020905b81548152906001019060200180831161069657829003601f168201915b5050505050905090565b60006106c882611721565b610707576040517f08c379a00000000000000000000000000000000000000000000000000000000081526004016106fe90612e1a565b60405180910390fd5b6005600083815260200190815260200160002060009054906101000a900473ffffffffffffffffffffffffffffffffffffffff169050919050565b600061074d82610b39565b90508073ffffffffffffffffffffffffffffffffffffffff168373ffffffffffffffffffffffffffffffffffffffff1614156107be576040517f08c379a00000000000000000000000000000000000000000000000000000000081526004016107b590612e9a565b60405180910390fd5b8073ffffffffffffffffffffffffffffffffffffffff166107dd61178d565b73ffffffffffffffffffffffffffffffffffffffff16148061080c575061080b8161080661178d565b611464565b5b61084b576040517f08c379a000000000000000000000000000000000000000000000000000000000815260040161084290612d3a565b60405180910390fd5b6108558383611795565b505050565b61086b61086561178d565b8261184e565b6108aa576040517f08c379a00000000000000000000000000000000000000000000000000000000081526004016108a190612eda565b60405180910390fd5b6108b583838361192c565b505050565b6108d583838360405180602001604052806000815250611298565b505050565b6000821180156108ef57506108ee82611721565b5b61092e576040517f08c379a000000000000000000000000000000000000000000000000000000000815260040161092590612d5a565b60405180910390fd5b61093f61093961178d565b8361184e565b61097e576040517f08c379a000000000000000000000000000000000000000000000000000000000815260040161097590612eda565b60405180910390fd5b6000600a600084815260200190815260200160002054905081600a6000858152602001908152602001600020819055507f7defee47a4b53e8b11976db684ab082b666a4df44af8418fd3e51a48871581a78382846040516109e193929190612f7c565b60405180910390a1505050565b60006109f861178d565b73ffffffffffffffffffffffffffffffffffffffff16610a16610dfd565b73ffffffffffffffffffffffffffffffffffffffff1614610a6c576040517f08c379a0000000000000000000000000000000000000000000000000000000008152600401610a6390612e3a565b60405180910390fd5b6000610a786008611b88565b9050610a848582611b96565b610a8e8184611bb4565b83600a6000838152602001908152602001600020819055506001600b600083815260200190815260200160002060006101000a81548160ff021916908315150217905550610adc60086116a1565b8473ffffffffffffffffffffffffffffffffffffffff167fc8ae715a96c20393c5095d019261baa06ba01ae0d8d74c58544ffc50eea7b412828686604051610b2693929190612f3e565b60405180910390a2809150509392505050565b6000806003600084815260200190815260200160002060009054906101000a900473ffffffffffffffffffffffffffffffffffffffff169050600073ffffffffffffffffffffffffffffffffffffffff168173ffffffffffffffffffffffffffffffffffffffff161415610be2576040517f08c379a0000000000000000000000000000000000000000000000000000000008152600401610bd990612d9a565b60405180910390fd5b80915050919050565b600b6020528060005260406000206000915054906101000a900460ff1681565b60008073ffffffffffffffffffffffffffffffffffffffff168273ffffffffffffffffffffffffffffffffffffffff161415610c7c576040517f08c379a0000000000000000000000000000000000000000000000000000000008152600401610c7390612d7a565b60405180910390fd5b600460008373ffffffffffffffffffffffffffffffffffffffff1673ffffffffffffffffffffffffffffffffffffffff168152602001908152602001600020549050919050565b610ccb61178d565b73ffffffffffffffffffffffffffffffffffffffff16610ce9610dfd565b73ffffffffffffffffffffffffffffffffffffffff1614610d3f576040517f08c379a0000000000000000000000000000000000000000000000000000000008152600401610d3690612e3a565b60405180910390fd5b600073ffffffffffffffffffffffffffffffffffffffff1660008054906101000a900473ffffffffffffffffffffffffffffffffffffffff1673ffffffffffffffffffffffffffffffffffffffff167f8be0079c531659141344cd1fd0a4f28419497f9722a3daafe3b4186f6b6457e060405160405180910390a360008060006101000a81548173ffffffffffffffffffffffffffffffffffffffff021916908373ffffffffffffffffffffffffffffffffffffffff160217905550565b60008060009054906101000a900473ffffffffffffffffffffffffffffffffffffffff16905090565b606060028054610e35906131ee565b80601f0160208091040260200160405190810160405280929190818152602001828054610e61906131ee565b8015610eae5780601f10610e8357610100808354040283529160200191610eae565b820191906000526020600020905b815481529060010190602001808311610e9157829003601f168201915b5050505050905090565b60008082118015610ece5750610ecd82611721565b5b610f0d576040517f08c379a0000000000000000000000000000000000000000000000000000000008152600401610f0490612d5a565b60405180910390fd5b6000610f1883610b39565b9050610f22610dfd565b73ffffffffffffffffffffffffffffffffffffffff163373ffffffffffffffffffffffffffffffffffffffff1614158015610f8957508073ffffffffffffffffffffffffffffffffffffffff163373ffffffffffffffffffffffffffffffffffffffff1614155b610fc8576040517f08c379a0000000000000000000000000000000000000000000000000000000008152600401610fbf90612eba565b60405180910390fd5b600a60008481526020019081526020016000205434101561101e576040517f08c379a000000000000000000000000000000000000000000000000000000000815260040161101590612c5a565b60405180910390fd5b8073ffffffffffffffffffffffffffffffffffffffff166108fc349081150290604051600060405180830381858888f19350505050158015611064573d6000803e3d6000fd5b506110a68133856040518060400160405280602081526020017f50657473686f703a207573657220627579696e67206f776e6572277320706574815250611c28565b3373ffffffffffffffffffffffffffffffffffffffff168173ffffffffffffffffffffffffffffffffffffffff167f52018f43b2ef95a3ff5877e05af71c6767beeb06aa56995d0649ebe7c0c713d18534604051611105929190612f15565b60405180910390a36001915050919050565b61111f61178d565b73ffffffffffffffffffffffffffffffffffffffff168273ffffffffffffffffffffffffffffffffffffffff16141561118d576040517f08c379a000000000000000000000000000000000000000000000000000000000815260040161118490612cfa565b60405180910390fd5b806006600061119a61178d565b73ffffffffffffffffffffffffffffffffffffffff1673ffffffffffffffffffffffffffffffffffffffff16815260200190815260200160002060008473ffffffffffffffffffffffffffffffffffffffff1673ffffffffffffffffffffffffffffffffffffffff16815260200190815260200160002060006101000a81548160ff0219169083151502179055508173ffffffffffffffffffffffffffffffffffffffff1661124761178d565b73ffffffffffffffffffffffffffffffffffffffff167f17307eab39ab6107e8899845ad3d59bd9653f200f220920489ca2b5937696c318360405161128c9190612c1d565b60405180910390a35050565b6112a96112a361178d565b8361184e565b6112e8576040517f08c379a00000000000000000000000000000000000000000000000000000000081526004016112df90612eda565b60405180910390fd5b6112f484848484611c28565b50505050565b606061130582611721565b611344576040517f08c379a000000000000000000000000000000000000000000000000000000000815260040161133b90612dfa565b60405180910390fd5b6000600760008481526020019081526020016000208054611364906131ee565b80601f0160208091040260200160405190810160405280929190818152602001828054611390906131ee565b80156113dd5780601f106113b2576101008083540402835291602001916113dd565b820191906000526020600020905b8154815290600101906020018083116113c057829003601f168201915b5050505050905060006113ee611c84565b9050600081511415611404578192505050611447565b600082511115611439578082604051602001611421929190612b92565b60405160208183030381529060405292505050611447565b61144284611d16565b925050505b919050565b600a6020528060005260406000206000915090505481565b6000600660008473ffffffffffffffffffffffffffffffffffffffff1673ffffffffffffffffffffffffffffffffffffffff16815260200190815260200160002060008373ffffffffffffffffffffffffffffffffffffffff1673ffffffffffffffffffffffffffffffffffffffff16815260200190815260200160002060009054906101000a900460ff16905092915050565b61150061178d565b73ffffffffffffffffffffffffffffffffffffffff1661151e610dfd565b73ffffffffffffffffffffffffffffffffffffffff1614611574576040517f08c379a000000000000000000000000000000000000000000000000000000000815260040161156b90612e3a565b60405180910390fd5b600073ffffffffffffffffffffffffffffffffffffffff168173ffffffffffffffffffffffffffffffffffffffff1614156115e4576040517f08c379a00000000000000000000000000000000000000000000000000000000081526004016115db90612c9a565b60405180910390fd5b8073ffffffffffffffffffffffffffffffffffffffff1660008054906101000a900473ffffffffffffffffffffffffffffffffffffffff1673ffffffffffffffffffffffffffffffffffffffff167f8be0079c531659141344cd1fd0a4f28419497f9722a3daafe3b4186f6b6457e060405160405180910390a3806000806101000a81548173ffffffffffffffffffffffffffffffffffffffff021916908373ffffffffffffffffffffffffffffffffffffffff16021790555050565b6001816000016000828254019250508190555050565b60007f01ffc9a7000000000000000000000000000000000000000000000000000000007bffffffffffffffffffffffffffffffffffffffffffffffffffffffff1916827bffffffffffffffffffffffffffffffffffffffffffffffffffffffff1916149050919050565b60008073ffffffffffffffffffffffffffffffffffffffff166003600084815260200190815260200160002060009054906101000a900473ffffffffffffffffffffffffffffffffffffffff1673ffffffffffffffffffffffffffffffffffffffff1614159050919050565b600033905090565b816005600083815260200190815260200160002060006101000a81548173ffffffffffffffffffffffffffffffffffffffff021916908373ffffffffffffffffffffffffffffffffffffffff160217905550808273ffffffffffffffffffffffffffffffffffffffff1661180883610b39565b73ffffffffffffffffffffffffffffffffffffffff167f8c5be1e5ebec7d5bd14f71427d1e84f3dd0314c0f7b2291e5b200ac8c7c3b92560405160405180910390a45050565b600061185982611721565b611898576040517f08c379a000000000000000000000000000000000000000000000000000000000815260040161188f90612d1a565b60405180910390fd5b60006118a383610b39565b90508073ffffffffffffffffffffffffffffffffffffffff168473ffffffffffffffffffffffffffffffffffffffff16148061191257508373ffffffffffffffffffffffffffffffffffffffff166118fa846106bd565b73ffffffffffffffffffffffffffffffffffffffff16145b8061192357506119228185611464565b5b91505092915050565b8273ffffffffffffffffffffffffffffffffffffffff1661194c82610b39565b73ffffffffffffffffffffffffffffffffffffffff16146119a2576040517f08c379a000000000000000000000000000000000000000000000000000000000815260040161199990612e5a565b60405180910390fd5b600073ffffffffffffffffffffffffffffffffffffffff168273ffffffffffffffffffffffffffffffffffffffff161415611a12576040517f08c379a0000000000000000000000000000000000000000000000000000000008152600401611a0990612cda565b60405180910390fd5b611a1d838383611dbd565b611a28600082611795565b6001600460008573ffffffffffffffffffffffffffffffffffffffff1673ffffffffffffffffffffffffffffffffffffffff1681526020019081526020016000206000828254611a789190613104565b925050819055506001600460008473ffffffffffffffffffffffffffffffffffffffff1673ffffffffffffffffffffffffffffffffffffffff1681526020019081526020016000206000828254611acf919061307d565b92505081905550816003600083815260200190815260200160002060006101000a81548173ffffffffffffffffffffffffffffffffffffffff021916908373ffffffffffffffffffffffffffffffffffffffff160217905550808273ffffffffffffffffffffffffffffffffffffffff168473ffffffffffffffffffffffffffffffffffffffff167fddf252ad1be2c89b69c2b068fc378daa952ba7f163c4a11628f55a4df523b3ef60405160405180910390a4505050565b600081600001549050919050565b611bb0828260405180602001604052806000815250611dc2565b5050565b611bbd82611721565b611bfc576040517f08c379a0000000000000000000000000000000000000000000000000000000008152600401611bf390612dba565b60405180910390fd5b80600760008481526020019081526020016000209080519060200190611c23929190612342565b505050565b611c3384848461192c565b611c3f84848484611e1d565b611c7e576040517f08c379a0000000000000000000000000000000000000000000000000000000008152600401611c7590612c7a565b60405180910390fd5b50505050565b606060098054611c93906131ee565b80601f0160208091040260200160405190810160405280929190818152602001828054611cbf906131ee565b8015611d0c5780601f10611ce157610100808354040283529160200191611d0c565b820191906000526020600020905b815481529060010190602001808311611cef57829003601f168201915b5050505050905090565b6060611d2182611721565b611d60576040517f08c379a0000000000000000000000000000000000000000000000000000000008152600401611d5790612e7a565b60405180910390fd5b6000611d6a611c84565b90506000815111611d8a5760405180602001604052806000815250611db5565b80611d9484611fb4565b604051602001611da5929190612b92565b6040516020818303038152906040525b915050919050565b505050565b611dcc8383612161565b611dd96000848484611e1d565b611e18576040517f08c379a0000000000000000000000000000000000000000000000000000000008152600401611e0f90612c7a565b60405180910390fd5b505050565b6000611e3e8473ffffffffffffffffffffffffffffffffffffffff1661232f565b15611fa7578373ffffffffffffffffffffffffffffffffffffffff1663150b7a02611e6761178d565b8786866040518563ffffffff1660e01b8152600401611e899493929190612bd1565b602060405180830381600087803b158015611ea357600080fd5b505af1925050508015611ed457506040513d601f19601f82011682018060405250810190611ed19190612755565b60015b611f57573d8060008114611f04576040519150601f19603f3d011682016040523d82523d6000602084013e611f09565b606091505b50600081511415611f4f576040517f08c379a0000000000000000000000000000000000000000000000000000000008152600401611f4690612c7a565b60405180910390fd5b805181602001fd5b63150b7a0260e01b7bffffffffffffffffffffffffffffffffffffffffffffffffffffffff1916817bffffffffffffffffffffffffffffffffffffffffffffffffffffffff191614915050611fac565b600190505b949350505050565b60606000821415611ffc576040518060400160405280600181526020017f3000000000000000000000000000000000000000000000000000000000000000815250905061215c565b600082905060005b6000821461202e57808061201790613251565b915050600a8261202791906130d3565b9150612004565b60008167ffffffffffffffff811115612070577f4e487b7100000000000000000000000000000000000000000000000000000000600052604160045260246000fd5b6040519080825280601f01601f1916602001820160405280156120a25781602001600182028036833780820191505090505b5090505b60008514612155576001826120bb9190613104565b9150600a856120ca919061329a565b60306120d6919061307d565b60f81b818381518110612112577f4e487b7100000000000000000000000000000000000000000000000000000000600052603260045260246000fd5b60200101907effffffffffffffffffffffffffffffffffffffffffffffffffffffffffffff1916908160001a905350600a8561214e91906130d3565b94506120a6565b8093505050505b919050565b600073ffffffffffffffffffffffffffffffffffffffff168273ffffffffffffffffffffffffffffffffffffffff1614156121d1576040517f08c379a00000000000000000000000000000000000000000000000000000000081526004016121c890612dda565b60405180910390fd5b6121da81611721565b1561221a576040517f08c379a000000000000000000000000000000000000000000000000000000000815260040161221190612cba565b60405180910390fd5b61222660008383611dbd565b6001600460008473ffffffffffffffffffffffffffffffffffffffff1673ffffffffffffffffffffffffffffffffffffffff1681526020019081526020016000206000828254612276919061307d565b92505081905550816003600083815260200190815260200160002060006101000a81548173ffffffffffffffffffffffffffffffffffffffff021916908373ffffffffffffffffffffffffffffffffffffffff160217905550808273ffffffffffffffffffffffffffffffffffffffff16600073ffffffffffffffffffffffffffffffffffffffff167fddf252ad1be2c89b69c2b068fc378daa952ba7f163c4a11628f55a4df523b3ef60405160405180910390a45050565b600080823b905060008111915050919050565b82805461234e906131ee565b90600052602060002090601f01602090048101928261237057600085556123b7565b82601f1061238957805160ff19168380011785556123b7565b828001600101855582156123b7579182015b828111156123b657825182559160200191906001019061239b565b5b5090506123c491906123c8565b5090565b5b808211156123e15760008160009055506001016123c9565b5090565b60006123f86123f384612fd8565b612fb3565b90508281526020810184848401111561241057600080fd5b61241b8482856131ac565b509392505050565b600061243661243184613009565b612fb3565b90508281526020810184848401111561244e57600080fd5b6124598482856131ac565b509392505050565b6000813590506124708161392f565b92915050565b60008135905061248581613946565b92915050565b60008135905061249a8161395d565b92915050565b6000815190506124af8161395d565b92915050565b600082601f8301126124c657600080fd5b81356124d68482602086016123e5565b91505092915050565b600082601f8301126124f057600080fd5b8135612500848260208601612423565b91505092915050565b60008135905061251881613974565b92915050565b60006020828403121561253057600080fd5b600061253e84828501612461565b91505092915050565b6000806040838503121561255a57600080fd5b600061256885828601612461565b925050602061257985828601612461565b9150509250929050565b60008060006060848603121561259857600080fd5b60006125a686828701612461565b93505060206125b786828701612461565b92505060406125c886828701612509565b9150509250925092565b600080600080608085870312156125e857600080fd5b60006125f687828801612461565b945050602061260787828801612461565b935050604061261887828801612509565b925050606085013567ffffffffffffffff81111561263557600080fd5b612641878288016124b5565b91505092959194509250565b6000806040838503121561266057600080fd5b600061266e85828601612461565b925050602061267f85828601612476565b9150509250929050565b6000806040838503121561269c57600080fd5b60006126aa85828601612461565b92505060206126bb85828601612509565b9150509250929050565b6000806000606084860312156126da57600080fd5b60006126e886828701612461565b93505060206126f986828701612509565b925050604084013567ffffffffffffffff81111561271657600080fd5b612722868287016124df565b9150509250925092565b60006020828403121561273e57600080fd5b600061274c8482850161248b565b91505092915050565b60006020828403121561276757600080fd5b6000612775848285016124a0565b91505092915050565b60006020828403121561279057600080fd5b600061279e84828501612509565b91505092915050565b600080604083850312156127ba57600080fd5b60006127c885828601612509565b92505060206127d985828601612509565b9150509250929050565b6127ec81613138565b82525050565b6127fb8161314a565b82525050565b600061280c8261303a565b6128168185613050565b93506128268185602086016131bb565b61282f81613387565b840191505092915050565b600061284582613045565b61284f8185613061565b935061285f8185602086016131bb565b61286881613387565b840191505092915050565b600061287e82613045565b6128888185613072565b93506128988185602086016131bb565b80840191505092915050565b60006128b1602483613061565b91506128bc82613398565b604082019050919050565b60006128d4603283613061565b91506128df826133e7565b604082019050919050565b60006128f7602683613061565b915061290282613436565b604082019050919050565b600061291a601c83613061565b915061292582613485565b602082019050919050565b600061293d602483613061565b9150612948826134ae565b604082019050919050565b6000612960601983613061565b915061296b826134fd565b602082019050919050565b6000612983602c83613061565b915061298e82613526565b604082019050919050565b60006129a6603883613061565b91506129b182613575565b604082019050919050565b60006129c9601a83613061565b91506129d4826135c4565b602082019050919050565b60006129ec602a83613061565b91506129f7826135ed565b604082019050919050565b6000612a0f602983613061565b9150612a1a8261363c565b604082019050919050565b6000612a32602e83613061565b9150612a3d8261368b565b604082019050919050565b6000612a55602083613061565b9150612a60826136da565b602082019050919050565b6000612a78603183613061565b9150612a8382613703565b604082019050919050565b6000612a9b602c83613061565b9150612aa682613752565b604082019050919050565b6000612abe602083613061565b9150612ac9826137a1565b602082019050919050565b6000612ae1602983613061565b9150612aec826137ca565b604082019050919050565b6000612b04602f83613061565b9150612b0f82613819565b604082019050919050565b6000612b27602183613061565b9150612b3282613868565b604082019050919050565b6000612b4a601983613061565b9150612b55826138b7565b602082019050919050565b6000612b6d603183613061565b9150612b78826138e0565b604082019050919050565b612b8c816131a2565b82525050565b6000612b9e8285612873565b9150612baa8284612873565b91508190509392505050565b6000602082019050612bcb60008301846127e3565b92915050565b6000608082019050612be660008301876127e3565b612bf360208301866127e3565b612c006040830185612b83565b8181036060830152612c128184612801565b905095945050505050565b6000602082019050612c3260008301846127f2565b92915050565b60006020820190508181036000830152612c52818461283a565b905092915050565b60006020820190508181036000830152612c73816128a4565b9050919050565b60006020820190508181036000830152612c93816128c7565b9050919050565b60006020820190508181036000830152612cb3816128ea565b9050919050565b60006020820190508181036000830152612cd38161290d565b9050919050565b60006020820190508181036000830152612cf381612930565b9050919050565b60006020820190508181036000830152612d1381612953565b9050919050565b60006020820190508181036000830152612d3381612976565b9050919050565b60006020820190508181036000830152612d5381612999565b9050919050565b60006020820190508181036000830152612d73816129bc565b9050919050565b60006020820190508181036000830152612d93816129df565b9050919050565b60006020820190508181036000830152612db381612a02565b9050919050565b60006020820190508181036000830152612dd381612a25565b9050919050565b60006020820190508181036000830152612df381612a48565b9050919050565b60006020820190508181036000830152612e1381612a6b565b9050919050565b60006020820190508181036000830152612e3381612a8e565b9050919050565b60006020820190508181036000830152612e5381612ab1565b9050919050565b60006020820190508181036000830152612e7381612ad4565b9050919050565b60006020820190508181036000830152612e9381612af7565b9050919050565b60006020820190508181036000830152612eb381612b1a565b9050919050565b60006020820190508181036000830152612ed381612b3d565b9050919050565b60006020820190508181036000830152612ef381612b60565b9050919050565b6000602082019050612f0f6000830184612b83565b92915050565b6000604082019050612f2a6000830185612b83565b612f376020830184612b83565b9392505050565b6000606082019050612f536000830186612b83565b612f606020830185612b83565b8181036040830152612f72818461283a565b9050949350505050565b6000606082019050612f916000830186612b83565b612f9e6020830185612b83565b612fab6040830184612b83565b949350505050565b6000612fbd612fce565b9050612fc98282613220565b919050565b6000604051905090565b600067ffffffffffffffff821115612ff357612ff2613358565b5b612ffc82613387565b9050602081019050919050565b600067ffffffffffffffff82111561302457613023613358565b5b61302d82613387565b9050602081019050919050565b600081519050919050565b600081519050919050565b600082825260208201905092915050565b600082825260208201905092915050565b600081905092915050565b6000613088826131a2565b9150613093836131a2565b9250827fffffffffffffffffffffffffffffffffffffffffffffffffffffffffffffffff038211156130c8576130c76132cb565b5b828201905092915050565b60006130de826131a2565b91506130e9836131a2565b9250826130f9576130f86132fa565b5b828204905092915050565b600061310f826131a2565b915061311a836131a2565b92508282101561312d5761312c6132cb565b5b828203905092915050565b600061314382613182565b9050919050565b60008115159050919050565b60007fffffffff0000000000000000000000000000000000000000000000000000000082169050919050565b600073ffffffffffffffffffffffffffffffffffffffff82169050919050565b6000819050919050565b82818337600083830152505050565b60005b838110156131d95780820151818401526020810190506131be565b838111156131e8576000848401525b50505050565b6000600282049050600182168061320657607f821691505b6020821081141561321a57613219613329565b5b50919050565b61322982613387565b810181811067ffffffffffffffff8211171561324857613247613358565b5b80604052505050565b600061325c826131a2565b91507fffffffffffffffffffffffffffffffffffffffffffffffffffffffffffffffff82141561328f5761328e6132cb565b5b600182019050919050565b60006132a5826131a2565b91506132b0836131a2565b9250826132c0576132bf6132fa565b5b828206905092915050565b7f4e487b7100000000000000000000000000000000000000000000000000000000600052601160045260246000fd5b7f4e487b7100000000000000000000000000000000000000000000000000000000600052601260045260246000fd5b7f4e487b7100000000000000000000000000000000000000000000000000000000600052602260045260246000fd5b7f4e487b7100000000000000000000000000000000000000000000000000000000600052604160045260246000fd5b6000601f19601f8301169050919050565b7f50657473686f703a2050726f766964652076616c696420707269636520666f7260008201527f2070657400000000000000000000000000000000000000000000000000000000602082015250565b7f4552433732313a207472616e7366657220746f206e6f6e20455243373231526560008201527f63656976657220696d706c656d656e7465720000000000000000000000000000602082015250565b7f4f776e61626c653a206e6577206f776e657220697320746865207a65726f206160008201527f6464726573730000000000000000000000000000000000000000000000000000602082015250565b7f4552433732313a20746f6b656e20616c7265616479206d696e74656400000000600082015250565b7f4552433732313a207472616e7366657220746f20746865207a65726f2061646460008201527f7265737300000000000000000000000000000000000000000000000000000000602082015250565b7f4552433732313a20617070726f766520746f2063616c6c657200000000000000600082015250565b7f4552433732313a206f70657261746f7220717565727920666f72206e6f6e657860008201527f697374656e7420746f6b656e0000000000000000000000000000000000000000602082015250565b7f4552433732313a20617070726f76652063616c6c6572206973206e6f74206f7760008201527f6e6572206e6f7220617070726f76656420666f7220616c6c0000000000000000602082015250565b7f50657473686f703a20746f6b656e4964206e6f742076616c6964000000000000600082015250565b7f4552433732313a2062616c616e636520717565727920666f7220746865207a6560008201527f726f206164647265737300000000000000000000000000000000000000000000602082015250565b7f4552433732313a206f776e657220717565727920666f72206e6f6e657869737460008201527f656e7420746f6b656e0000000000000000000000000000000000000000000000602082015250565b7f45524337323155524953746f726167653a2055524920736574206f66206e6f6e60008201527f6578697374656e7420746f6b656e000000000000000000000000000000000000602082015250565b7f4552433732313a206d696e7420746f20746865207a65726f2061646472657373600082015250565b7f45524337323155524953746f726167653a2055524920717565727920666f722060008201527f6e6f6e6578697374656e7420746f6b656e000000000000000000000000000000602082015250565b7f4552433732313a20617070726f76656420717565727920666f72206e6f6e657860008201527f697374656e7420746f6b656e0000000000000000000000000000000000000000602082015250565b7f4f776e61626c653a2063616c6c6572206973206e6f7420746865206f776e6572600082015250565b7f4552433732313a207472616e73666572206f6620746f6b656e2074686174206960008201527f73206e6f74206f776e0000000000000000000000000000000000000000000000602082015250565b7f4552433732314d657461646174613a2055524920717565727920666f72206e6f60008201527f6e6578697374656e7420746f6b656e0000000000000000000000000000000000602082015250565b7f4552433732313a20617070726f76616c20746f2063757272656e74206f776e6560008201527f7200000000000000000000000000000000000000000000000000000000000000602082015250565b7f50657473686f703a204f776e65722063616e27742063616c6c00000000000000600082015250565b7f4552433732313a207472616e736665722063616c6c6572206973206e6f74206f60008201527f776e6572206e6f7220617070726f766564000000000000000000000000000000602082015250565b61393881613138565b811461394357600080fd5b50565b61394f8161314a565b811461395a57600080fd5b50565b61396681613156565b811461397157600080fd5b50565b61397d816131a2565b811461398857600080fd5b5056fea2646970667358221220f34f76b7696746af529c08408b75426592d2af26466fc84bc1e5f83e953a5af764736f6c63430008040033",
  "immutableReferences": {},
  "source": "// SPDX-License-Identifier: MIT\npragma solidity ^0.8.0;\n\n// import \"https://github.com/OpenZeppelin/openzeppelin-contracts/blob/release-v4.1/contracts/token/ERC721/ERC721.sol\";\n// import \"https://github.com/OpenZeppelin/openzeppelin-contracts/blob/release-v4.1/contracts/token/ERC721/extensions/ERC721URIStorage.sol\";\n// import \"https://github.com/OpenZeppelin/openzeppelin-contracts/blob/release-v4.1/contracts/utils/Context.sol\";\n// import \"https://github.com/OpenZeppelin/openzeppelin-contracts/blob/release-v4.1/contracts/utils/Counters.sol\";\n// import \"https://github.com/OpenZeppelin/openzeppelin-contracts/blob/release-v4.1/contracts/access/Ownable.sol\";\n\nimport \"@openzeppelin/contracts/token/ERC721/ERC721.sol\";\nimport \"@openzeppelin/contracts/token/ERC721/extensions/ERC721URIStorage.sol\";\nimport \"@openzeppelin/contracts/utils/Context.sol\";\nimport \"@openzeppelin/contracts/utils/Counters.sol\";\nimport \"@openzeppelin/contracts/access/Ownable.sol\";\n\n/**\n * @dev {ERC721} token, including:\n *\n *  - ability for holders to burn (destroy) their tokens\n *  - owner can mint new pets\n *  - owner can set the price of pet\n *  - user can buy pet with ether\n *\n * This contract uses {AccessControl} to lock permissioned functions using the\n * different roles - head to its documentation for details.\n *\n * The account that deploys the contract will be granted the minter and pauser\n * roles, as well as the default admin role, which will let it grant both minter\n * and pauser roles to other accounts.\n */\ncontract Petshop is Context, Ownable, ERC721URIStorage {\n    using Counters for Counters.Counter;\n\n    // tokenId tracker using lib\n    Counters.Counter private _tokenIdTracker;\n\n    // baseURI for metadata\n    string private _baseTokenURI;\n\n    // Token prices\n    mapping(uint256 => uint256) public tokenPrices;\n\n    // Boolean values either pets are on sale or not\n    mapping(uint256 => bool) public petsOnSale;\n\n    event PetCreated(\n        address indexed owner,\n        uint256 tokenId,\n        uint256 price,\n        string tokenURI\n    );\n\n    event PetPurchase(\n        address indexed prevOwner,\n        address indexed newOwner,\n        uint256 tokenId,\n        uint256 price\n    );\n\n    event PetPriceChanged(uint256 tokenId, uint256 prevPrice, uint256 newPrice);\n\n    constructor(\n        string memory name,\n        string memory symbol,\n        string memory baseTokenURI\n    ) ERC721(name, symbol) {\n        _baseTokenURI = baseTokenURI;\n\n        // start from tokenId 1\n        _tokenIdTracker.increment();\n    }\n\n    receive() external payable {\n        revert();\n    }\n\n    function _baseURI() internal view virtual override returns (string memory) {\n        return _baseTokenURI;\n    }\n\n    /**\n     * @dev Creates a new token to 'to_'. Its token ID will be automatically\n     * assigned (and available on the emitted {IERC721-Transfer} event), and the token\n     * URI will be set\n     *\n     * @param to_ the address to which pet is minted to\n     * @param price_ the price of the pet\n     * @param tokenURI_ the token URI of the pet\n     *\n     * Requirements:\n     *\n     * - the caller must have be the owner of Petshop\n     */\n    function createPet(\n        address to_,\n        uint256 price_,\n        string memory tokenURI_\n    ) public virtual onlyOwner() returns (uint256) {\n        uint256 tokenId_ = _tokenIdTracker.current();\n\n        // mint pet\n        _safeMint(to_, tokenId_);\n\n        // set tokenURI of pet\n        _setTokenURI(tokenId_, tokenURI_);\n\n        // set the price of pet\n        tokenPrices[tokenId_] = price_;\n\n        // set onsale to true\n        petsOnSale[tokenId_] = true;\n\n        // increment the tokenId\n        _tokenIdTracker.increment();\n\n        // emit event\n        emit PetCreated(to_, tokenId_, price_, tokenURI_);\n\n        // new tokenId\n        return tokenId_;\n    }\n\n    /**\n     * @dev Anyone can buy pet by giving the amount of ether\n     *\n     * @param tokenId_ the tokenId to be bought\n     *\n     * Requirements:\n     *\n     * - the caller must provide ether price of pet\n     */\n    function buyPet(uint256 tokenId_) public payable returns (bool) {\n        require(\n            tokenId_ > 0 && _exists(tokenId_),\n            \"Petshop: tokenId not valid\"\n        );\n        address prevOwner = ownerOf(tokenId_);\n        require(\n            msg.sender != owner() && msg.sender != prevOwner,\n            \"Petshop: Owner can't call\"\n        );\n        require(\n            msg.value >= tokenPrices[tokenId_],\n            \"Petshop: Provide valid price for pet\"\n        );\n\n        // transfer funds to owner\n        payable(prevOwner).transfer(msg.value);\n\n        // transfer pet to new user (clears approvals too)\n        _safeTransfer(\n            prevOwner,\n            msg.sender,\n            tokenId_,\n            \"Petshop: user buying owner's pet\"\n        );\n\n        emit PetPurchase(prevOwner, msg.sender, tokenId_, msg.value);\n\n        // purchase successful\n        return true;\n    }\n\n    /**\n     * @dev Anyone can buy pet by giving the amount of ether\n     *\n     * @param tokenId_ the tokenId to be bought\n     * @param price_ price value to be changed\n     *\n     * Requirements:\n     *\n     * - the caller must be the owner or isApproved of the pet\n     */\n    function changePetPrice(uint256 tokenId_, uint256 price_) public {\n        require(\n            tokenId_ > 0 && _exists(tokenId_),\n            \"Petshop: tokenId not valid\"\n        );\n        require(\n            _isApprovedOrOwner(_msgSender(), tokenId_),\n            \"ERC721: transfer caller is not owner nor approved\"\n        );\n\n        uint256 prevPrice_ = tokenPrices[tokenId_];\n        tokenPrices[tokenId_] = price_;\n\n        emit PetPriceChanged(tokenId_, prevPrice_, price_);\n    }\n}\n",
  "sourcePath": "C:/Users/Master/Desktop/petshop-ipfs-dapp-master/petshop-ipfs-dapp-master/contracts/Petshop.sol",
  "compiler": {
    "name": "solc",
    "version": "0.8.4+commit.c7e474f2.Emscripten.clang"
  },
  "schemaVersion": "3.3.4",
  "updatedAt": "2021-05-05T10:12:03.036Z",
  "devdoc": {
    "details": "{ERC721} token, including:  - ability for holders to burn (destroy) their tokens  - owner can mint new pets  - owner can set the price of pet  - user can buy pet with ether This contract uses {AccessControl} to lock permissioned functions using the different roles - head to its documentation for details. The account that deploys the contract will be granted the minter and pauser roles, as well as the default admin role, which will let it grant both minter and pauser roles to other accounts.",
    "kind": "dev",
    "methods": {
      "approve(address,uint256)": {
        "details": "See {IERC721-approve}."
      },
      "balanceOf(address)": {
        "details": "See {IERC721-balanceOf}."
      },
      "buyPet(uint256)": {
        "details": "Anyone can buy pet by giving the amount of ether",
        "params": {
          "tokenId_": "the tokenId to be bought Requirements: - the caller must provide ether price of pet"
        }
      },
      "changePetPrice(uint256,uint256)": {
        "details": "Anyone can buy pet by giving the amount of ether",
        "params": {
          "price_": "price value to be changed Requirements: - the caller must be the owner or isApproved of the pet",
          "tokenId_": "the tokenId to be bought"
        }
      },
      "createPet(address,uint256,string)": {
        "details": "Creates a new token to 'to_'. Its token ID will be automatically assigned (and available on the emitted {IERC721-Transfer} event), and the token URI will be set",
        "params": {
          "price_": "the price of the pet",
          "to_": "the address to which pet is minted to",
          "tokenURI_": "the token URI of the pet Requirements: - the caller must have be the owner of Petshop"
        }
      },
      "getApproved(uint256)": {
        "details": "See {IERC721-getApproved}."
      },
      "isApprovedForAll(address,address)": {
        "details": "See {IERC721-isApprovedForAll}."
      },
      "name()": {
        "details": "See {IERC721Metadata-name}."
      },
      "owner()": {
        "details": "Returns the address of the current owner."
      },
      "ownerOf(uint256)": {
        "details": "See {IERC721-ownerOf}."
      },
      "renounceOwnership()": {
        "details": "Leaves the contract without owner. It will not be possible to call `onlyOwner` functions anymore. Can only be called by the current owner. NOTE: Renouncing ownership will leave the contract without an owner, thereby removing any functionality that is only available to the owner."
      },
      "safeTransferFrom(address,address,uint256)": {
        "details": "See {IERC721-safeTransferFrom}."
      },
      "safeTransferFrom(address,address,uint256,bytes)": {
        "details": "See {IERC721-safeTransferFrom}."
      },
      "setApprovalForAll(address,bool)": {
        "details": "See {IERC721-setApprovalForAll}."
      },
      "supportsInterface(bytes4)": {
        "details": "See {IERC165-supportsInterface}."
      },
      "symbol()": {
        "details": "See {IERC721Metadata-symbol}."
      },
      "tokenURI(uint256)": {
        "details": "See {IERC721Metadata-tokenURI}."
      },
      "transferFrom(address,address,uint256)": {
        "details": "See {IERC721-transferFrom}."
      },
      "transferOwnership(address)": {
        "details": "Transfers ownership of the contract to a new account (`newOwner`). Can only be called by the current owner."
      }
    },
    "version": 1
  },
  "userdoc": {
    "kind": "user",
    "methods": {},
    "version": 1
  }
}